:020000040800F2
:10000000704B0020A1010008B7100008B3100008D1
:10001000B5100008AD0C00083717000800000000FC
:1000200000000000000000000000000001010008C6
:10003000AF0C00080000000041010008ED130008AB
:10004000BB010008BB010008BB010008BB010008A0
:10005000BB010008BB0100080D100008BB0100082F
:10006000BB010008BB010008BB010008BB01000880
:10007000BB010008BB010008BB010008BB01000870
:10008000BB010008BB010008BB010008BB01000860
:10009000BB010008BB010008BB010008BB01000850
:1000A000BB010008BB010008BB010008BB01000840
:1000B0004114000845140008BB010008BB010008FA
:1000C000BB010008BB010008BB010008BB01000820
:1000D000BB010008B1150008BB010008B5150008F8
:1000E000BB010008BB010008BB010008DFF80CD011
:1000F00000F028FB0048004765210008704B0020F5
:100100001F4B19680868B0E8F00F80F30988BFF347
:100110006F8F4FF0000080F311884EF00D0E704786
:100120000000000005480068006880F3088862B697
:10013000BFF34F8FBFF36F8F00DF00BF08ED00E00C
:10014000EFF30980BFF36F8F0D4B1A6820E9F00FB2
:10015000106008B54FF0BF0080F3118802F0B2FACA
:100160004FF0000080F31188BDE808401968086866
:10017000B0E8F00F80F30988BFF36F8F704700BFBE
:1001800014010020EFF311804FF0BF0181F31188BB
:10019000704780F311887047EFF3058070470000C7
:1001A0000648804706480047FEE7FEE7FEE7FEE711
:1001B000FEE7FEE7FEE7FEE7FEE7FEE7F1130008D5
:1001C000ED00000840EA01039B0703D009E008C9DD
:1001D000121F08C0042AFAD203E011F8013B00F80C
:1001E000013B521EF9D2704700F0004230F000404F
:1001F0000AD0C10D01F56071C0F3160042EA015149
:10020000C20840071143704700200146704701F0C3
:10021000004330B421F0004150EA010206D00A0D3B
:10022000A2F56072C1F31301002A02DC30BC002089
:100230007047440F44EAC104C100E01830BC00EB31
:10024000C25000F095B830B50B4601460020202280
:10025000012409E021FA02F59D4205D303FA02F5D3
:10026000491B04FA02F52844151EA2F10102F1DC33
:1002700030BD2DE9F05F0546002092469B4688463A
:100280000646814640241BE0284641464746224612
:1002900000F079FA53465A46C01A914110D31146DC
:1002A0001846224600F060FA2D1A67EB01084F4607
:1002B00022460120002100F057FA17EB00094E41B9
:1002C000201EA4F10104DFDC484631462A4643469D
:1002D000BDE8F09F0FB4002300B589B00CA90091D0
:1002E0000B996FF00042CB601E4B06931E4B079399
:1002F0000423CDE901321D4A089202466B460020D4
:1003000000F0E8FA09B05DF814FB70B586B0064657
:100310004FF0FF300091CDE90101002015460C4659
:1003200004903246694604A8FFF7D4FF03460498B8
:10033000211825B108B10A4600E022462A600028AB
:100340000DD0002B02DD0098884208D0081B0094D5
:10035000CDE901043246694604A8FFF7BBFF06B0A9
:1003600070BD0000110B00082F0B0008CB07000820
:100370000029A8BF7047401C490008BF20F00100B9
:10038000704710B4B0FA80FC00FA0CF050EA010497
:1003900004BF10BC704749B1CCF1200421FA04F429
:1003A00011FA0CF118BF012121430843A3EB0C0102
:1003B000CB1D0106000A002BBEBF002010BC7047F9
:1003C00000EBC35010440029A4BF10BC7047401C70
:1003D000490008BF20F0010010BC70472DE9FE4F16
:1003E000804681EA0300C00F0C46009021F00041D6
:1003F00023F00045B8EB0200A94105D24046214652
:1004000090461C460B46024623F00040104304D1A0
:100410004046214603B0BDE8F08F270DC7F30A0020
:10042000C3F30A510290401A0190402866DAC3F3E0
:10043000130040F4801B0098924620B10023D2EBB9
:10044000030A63EB0B0B01985946C0F1400250467A
:1004500000F08AF906460D4650465946019A00F0CA
:10046000A2F910EB08006141002487EA115284EAE6
:10047000E7731A433BD0009A3AB3019A012A4FEA34
:10048000075210DC001B61EB02014FF0004202EA50
:100490000752CDE90042001C41F5801132462B463F
:1004A00000F063FBB6E7001B61EB0201001C41F5A5
:1004B000801300185B412018A2F5001747EB0301D9
:1004C00040EAD570B6196D4111E06D084FEA360665
:1004D00045EAC0754FEA0752001B61EB0201001CA0
:1004E00041F5801149084FEA300000195141324668
:1004F0002B4603B0BDE8F04F00F02ABB0098012264
:1005000040000023D0EB020263EBE0730098214629
:100510004FEAE074B8EB000061EB0401E9E783F017
:1005200000435BE781F0004158E72DE9FE4F81EA87
:10053000030404F0004421F0004100944FF0000B4C
:1005400023F0004350EA010402D052EA030404D12C
:100550000020014603B0BDE8F08FC3F30A54C1F395
:100560000A552C44A4F2F3340194A0FB0254C1F3C5
:10057000130141F48011C3F3130343F4801301FB0F
:10058000024400FB034E840A970A44EA815447EA76
:100590008357A4FB076802958D0A05FB07854FEA80
:1005A000932C04FB0C542705029D4FEA065847EA9A
:1005B0001637B5EB08056EEB070C870E920E47EA6F
:1005C000811742EA8312A7FB0201B6EB0B0164EB31
:1005D00000042B0D43EA0C335E1844EB1C50DA4642
:1005E0005146E7FB0201C5F313044FEA0B3343EA1C
:1005F00014534FEA0432019C43EA0603A4F10C04AD
:100600000294009CCDE900B400F0AFFAA2E72DE916
:10061000F04D81EA030404F0004B21F0004514463C
:100620004FF0000A23F0004150EA050220D054EABE
:1006300001021DD0C5F30A570246C5F31303C1F3E7
:100640001300C1F30A5640F4801543F48013A7EB5E
:100650000608101BD64608F2FD3873EB050002D3DE
:1006600008F1010801E092185B41B8F1000F03DACC
:1006700000200146BDE8F08D00204FF480110646B1
:1006800084460EE0171B73EB050705D3121B63EBC3
:10069000050306434CEA010C49084FEA3000921862
:1006A0005B4150EA0107EDD152EA030012D082EA21
:1006B000040083EA0501084303D100224FF0004300
:1006C00008E0101BAB4102D20122002302E06FF0D0
:1006D000010253101AEB06004CEB085110EB0A0014
:1006E00041EB0B01BDE8F04D00F032BAC1F30A5204
:1006F000C1F3130140F2FF3341F480119A4202DA50
:1007000000200146704740F233439A42A2F233423E
:1007100002DC524200F037B800F026B830B50029AC
:1007200004DB4FF00044404264EB0101002B04DB8A
:100730004FF00044524264EB0303994208BF9042D9
:1007400030BD0000064C074D06E0E06840F00103B4
:1007500094E8070098471034AC42F6D3FFF7CAFC80
:10076000502A0008702A0008202A04DB203A00FAE8
:1007700002F1002070479140C2F1200320FA03F3F8
:10078000194390407047202A04DB203A21FA02F0F6
:100790000021704721FA02F3D040C2F120029140BB
:1007A000084319467047202A06DBCB17203A41FA46
:1007B00002F043EAE07306E041FA02F3D040C2F1EE
:1007C00020029140084319467047C0B24FF4F051DF
:1007D00000F01EBA2DE9FF4F087881B09946FF2836
:1007E00005D0491C2D2804D00024002308E0002354
:1007F0000BE00124F9E703EB830300EB4303491CFF
:100800000878FF28F7D104B15B42002000901478EB
:1008100001462D2C01D02B2C04D1521C2D2C12D092
:100820000024009400251678FF2E0ED00A24A0FB89
:1008300004C801FB0481002700FB0711521C16EBC2
:100840000C006941EFE70124EBE7994450EA01020B
:1008500006D101980021C0E9001105B0BDE8F08F74
:100860000024A84D2646DFF8A08200F0E5F9824674
:100870008B46B9F1000002DAC9F1000714E007461F
:1008800012E0F80707D022462B4630464146FFF7D4
:100890004CFE0646884622462B4610461946FFF770
:1008A00044FE04460D467F10002FEAD1B9F1000F37
:1008B000324643465046594602DAFFF7A8FE01E0A9
:1008C000FFF733FE009A0AB181F00041019AC2E9B4
:1008D0000001C2E72DE9FF4F1F468DB0D7E9014661
:1008E0004FF0FF382E2045464FF000090B90B969B4
:1008F0006D1C0E988847396A824688470028F6D1D1
:100900001AF101000AD024F4D064002E12DDBAF1ED
:100910002B0F08D0BAF12D0F0CD102E0404611B0D8
:100920009CE744F48064B9696D1C0E988847824640
:10093000A6F101066946600501D52D2000E02B20B7
:100940008DF8000001F1010B0DF1200809E0B969F3
:100950006D1C0E98884782460F98761E44F40074EA
:100960000560002E02DDBAF1300FF0D00B998A45F8
:100970003ED144F0800406E00F99681CA9F10109FA
:1009800044F400740860761EB9696D1C0E9888479F
:1009900082463028F0D02BE00B998A4505D12006FD
:1009A00003D444F08004761E18E0504600F09EFF09
:1009B00008B3761E0DF1130144F400748B4508D280
:1009C000AAF130000BF8010B200607D5A9F10100B0
:1009D00003E0200602D409F101008146A00502D5FA
:1009E0000F99681C0860B9696D1C0E98884782468B
:1009F000002ED1DC54E0002E52DDBAF1650F02D09A
:100A0000BAF1450F4CD1A0054AD5761EB96924F438
:100A100040746D1C0E9888478246002E0DDD2B28F1
:100A200004D0BAF12D0F08D144F48074B9696D1C5B
:100A30000E9888478246A6F10106E00501D52D21D2
:100A400000E02B2108F8011BCDF82C8021E0761E58
:100A50000DF1290144F4007488450CD2AAF130004C
:100A600010F0FF0088F8000002D10B99884509D9E1
:100A700008F1010806E0E00501D5244801E042F252
:100A80000F708146B9696D1C0E98884782460F9891
:100A90000560002E04DD504600F028FF0028D6D166
:100AA000F9690E988847FF208BF8000088F800004D
:100AB0000020069007904B466A4608A906A8FFF753
:100AC00089FEA00502D46FF0010028E714F0240F7E
:100AD0000AD0E00714D1DDE906123868031D3B6037
:100AE0000068C0E900120BE0DDE90601FFF78FFBAB
:100AF0000146E00704D13868021D3A6000680160D1
:100B000028460CE7000024400000F03FF1D8FFFF2A
:100B1000426842B1016811F8013B23B1521EC0E99D
:100B20000012184670470121C160881E7047426854
:100B30005AB1C368016843B983688B4205D0491E26
:100B4000521CC0E90012002070474FF0FF30704780
:100B500010B5002B08DA401C41F1000192185B41EE
:100B60001A4301D120F0010010BD2DE9F04D92464D
:100B70009B4611B1B1FA81F202E0B0FA80F2203264
:100B80009046FFF7F1FD04460F4640EA0A0041EAAD
:100B90000B0153465A46084303D120463946BDE867
:100BA000F08D114653EA010015D0C8F140025046BD
:100BB000FFF7E9FD05460E46504659464246FFF707
:100BC000D3FD084301D0012000E00020054346EAA0
:100BD000E0762C4337430A984FEA4453A0EB0800D1
:100BE0004FEAD4240A304FF0000244EA47544FEA57
:100BF000D72502D500200146D1E70105101969412A
:100C0000DDE9084500196941BDE8F04DA0E70000A5
:100C10007F2801D9002208E0064A02EB5002C007F3
:100C2000127800D1120902F00F0201209040084012
:100C300070470000102A00080EB540F233420292BD
:100C40000022CDE900221346FFF78FFF03B000BD5D
:100C500070B501EB020410F8015B15F0070301D138
:100C600010F8013B2A1106D110F8012B03E010F80F
:100C7000016B01F8016B5B1EF9D12B0705D4002332
:100C8000521E0FD401F8013BFAE710F8013B02F1C4
:100C90000202A1EB030303E013F8015B01F8015B1F
:100CA000521EF9D5A142D6D3002070BDFEE7704791
:100CB000F8B504464FF4407000F030FA194E0020A9
:100CC000012140F22555B44207D125228DF800209C
:100CD0008DF802008DF8011009E0134EB44215D1D1
:100CE00026228DF800208DF80200022017E08DF8F2
:100CF0000310684600F0E0F92946304600F05FFC3A
:100D000001222946304600F090FCF8BD074EB4425F
:100D1000FBD127228DF800208DF8020003208DF8EA
:100D20000100E4E700380140004400400048004072
:100D300010B572B6054A06490648FFF743FA054959
:100D40004FF0005000F0F4F962B610BDEC00000066
:100D5000000000080000002070B5154C40F2255539
:100D60002946204600F042FC18B12946204600F0F2
:100D700026FC40F226652946204600F037FC18B1D3
:100D80002946204600F01BFC40F2277529462046E4
:100D900000F02CFC00280AD02946204600F00FFC69
:100DA00029462046BDE87040002200F03EBC70BDE0
:100DB0000038014070B51F4D40F2255421462846A9
:100DC00000F014FCB8B12146284600F0F8FB1A4C9C
:100DD000A07828B92078E070002020700120607091
:100DE0000320A070284600F093FC0146134A2078A7
:100DF0001154401C207040F226642146284600F021
:100E0000F5FB18B12146284600F0D9FB40F22774C3
:100E10002146284600F0EAFB00280AD02146284651
:100E200000F0CDFB21462846BDE87040002200F0CE
:100E3000FCBB70BD00480040680100200C4700204A
:100E4000014948607047000068010020F8B5044679
:100E500001210D2000F082F9214A03201821214DA3
:100E60001715042694420DD15215ADF800208DF8C7
:100E700002008DF803106946284600F0C9F8ADF865
:100E800000700FE0184A944213D1ADF800608DF85D
:100E900002008DF803106946284600F0B9F80820D2
:100EA000ADF800008DF803606946284600F0B0F800
:100EB000F8BD0E4A9442FBD1ADF800708DF80200E7
:100EC0000B4C8DF803106946204600F0A1F8E014A1
:100ED000ADF800008DF8036069462046E6E70000A3
:100EE0000038014000080140004400400048004034
:100EF000000C01402DE9FF4104462148DDF828801F
:100F00001D4616460F46844204D10121880300F095
:100F100025F90CE01B48844202D10121480404E079
:100F20001948844203D10121880400F00BF9684676
:100F300000F0F6FB0020ADF80C00ADF808800C20A6
:100F4000ADF80460ADF80A000097ADF80650002136
:100F5000204600F03AFB2046FFF778FF2046FFF7D7
:100F6000A7FE6946204600F079FB0121204600F0EB
:100F70002CFB4021204600F01FFBBDE8FF81000054
:100F80000038014000440040004800402DE9F04195
:100F900015460E46074600240EE04021384600F074
:100FA0000BFB315D384600F0B7FB4021384600F0BE
:100FB00016FB0028F9D0641CAC42EED3BDE8F081EA
:100FC00038B50121082000F0C9F80120ADF8000073
:100FD00010208DF8030003200B4C8DF802006946A9
:100FE000204600F015F80220ADF8000069462046C2
:100FF00000F00EF80121204600F059F802212046A9
:1010000000F055F838BD0000000C014070470000AA
:10101000F0B5CA78002502F00F03D20601D58A7810
:1010200013430C784FF00F0E0122ECB1D0F80040C2
:101030000F8802FA05F63740B74211D14FEA850C06
:101040000EFA0CF724EA070703FA0CF43C43CF78B6
:10105000282F02D0482F02D002E0466100E006614E
:101060006D1C082DE4D304600C88FF2C1ED9446845
:101070005FF0000606F1080702FA07F50F882F4017
:10108000AF420FD14FEA860C0EFA0CF7BC4303FABD
:101090000CF73C43CF78282F00D14561CF78482FFB
:1010A00000D10561761C082EE4D34460F0BD0161D7
:1010B0007047FEE7FEE77047F0B50F21C47802786D
:1010C00001234FF0E026DCB1124C2468457804F48B
:1010D000E064C4F5E064240AC4F10407E1408478C4
:1010E000BD400C402C4321010B4C1155007800F001
:1010F0001F018B40400906EB8000C0F80031F0BDB5
:1011000002F01F008340500906EB8000C0F88031D8
:10111000F0BD00000CED00E000E400E002490843EF
:1011200002490860704700000000FA050CED00E07D
:10113000024A1140014302480160704780FFFF1FCF
:1011400008ED00E0044A0029D16901D0014300E024
:101150008143D1617047000000100240044A002919
:10116000916901D0014300E0814391617047000023
:10117000001002400C48016841F001010160416823
:101180000A4A114041600168094A11400160016842
:1011900021F480210160416821F4FE0141604FF497
:1011A0001F01816070470000001002400000FFF83E
:1011B000FFFFF6FE30B520494A6812F00C031F4AC3
:1011C00003D0042B01D0082B22D002604A680F23E1
:1011D0001B4C03EA1212A35C0268DA4042604B68BF
:1011E000072505EA1323E35C22FA03F383604B68C7
:1011F00005EAD323E35C22FA03F2C26049680323C1
:1012000003EA9131231F595CB2FBF1F1016130BD5A
:101210004A684B6802F470124FF0020413F4803FE6
:1012200004EB924202D04B689B0301D5054B00E0D2
:10123000024B5A43C9E700000010024000127A0036
:101240000401002000093D0002460020530909491D
:10125000012B0BD0022B0BD0D1F8241002F01F026F
:10126000012393400B4200D0012070470968F5E745
:10127000096AF3E7001002400248406800F00C00E1
:101280007047000000100240034A516821F0F0014D
:101290000143516070470000001002400B490A688A
:1012A00022F480320A600A6822F480220A60B0F5D3
:1012B000803F07D0B0F5802F03D1086840F4A0200C
:1012C00008607047086840F48030F9E70010024079
:1012D000034A516821F4E061014351607047000006
:1012E0000010024003494A6822F4605242EAC000FA
:1012F00048607047001002400149086670470000CE
:1013000000004242034A5368084323F47C13184305
:101310005060704700100240034A516821F00301F9
:101320000143516070470000001002400CB50021DD
:10133000264801910091026842F4803202604FF425
:10134000A063026802F400320092019A521C0192DA
:10135000009A12B9019A9A42F3D10268920333D5E6
:10136000012100911A490A6842F010020A600A68D5
:1013700022F003020A600A6842F002020A60416831
:10138000416041684160416841F480614160416869
:1013900021F47C114160416841F4E8114160016829
:1013A00041F08071016001688901FCD5416821F03C
:1013B00003014160416841F0020141604168C1F3AD
:1013C00081010229FAD10CBD00910CBD0010024030
:1013D000002002404FF0E0210428086903D020F0EB
:1013E00004000861704740F00400FAE701F0AAB970
:1013F0000F4810B5016841F00101016041680D4AD4
:101400001140416001680C4A11400160016821F4FB
:1014100080210160416821F4FE0141604FF41F0109
:101420008160FFF783FF05494FF00060086010BD41
:10143000001002400000FFF8FFFFF6FE08ED00E09C
:1014400000F08ABF10B5084C0121204600F04DF88D
:1014500020B106490A780AB1521E0A702046BDE83A
:101460001040012100F034B8000400406A0100205F
:101470007FB50C46054601210220FFF763FEADF85B
:101480000450ADF800400024104DADF80640ADF812
:1014900002406946284600F03DF8012211462846E0
:1014A00000F02FF81D208DF80C008DF80D40042061
:1014B0008DF80E0001208DF80F0003A8FFF7FCFD4A
:1014C0000121284600F007F87FBD0000000400401D
:1014D000C943018270470029018802D041F001010F
:1014E00001E021F001010180704702460020138ACB
:1014F00092890B4202EA010202D0002A00D00120A8
:101500007047002A828901D00A4300E08A43828121
:101510007047000030B502881B4B1C4C98420DD020
:10152000A0420BD0B0F1804F08D0194DA84205D091
:10153000184DA84202D0184DA84203D122F07005E0
:101540004A882A43154DA84206D0154DA84203D01B
:1015500022F44075CA882A4302808A8882850A88D4
:10156000028598420AD0A04208D00E4A904205D087
:101570000D4A904202D00D4A904201D1097A01866B
:101580000121818230BD0000002C01400034014067
:101590000004004000080040000C00400010004023
:1015A0000014004000400140004401400048014058
:1015B000FFF7D2BBFFF7FEBBC943018070470A0AA1
:1015C00001219140C943018070470029818902D0DF
:1015D00041F4005101E021F400518181704702463D
:1015E000002012880A4200D00120704730B501F077
:1015F0001F0201240025C1F3421304FA02F2012B59
:101600000FD0022B0FD0838A4FEA1121008813429A
:1016100004FA01F400EA040001D000B101252846D3
:1016200030BD8389F0E7038AEEE710B5C1F34213BA
:1016300001F01F040121A140012B07D0022B07D08C
:101640001430002A026805D00A4304E00C30F8E7A1
:101650001030F6E78A43026010BD000030B5044642
:10166000008A85B00D464CF6FF710840E9880143B9
:101670002182A1894EF6F3100140A8882A891043DF
:101680006A890A431043A081A08A4FF6FF410840AF
:10169000A9890143A1826846FFF78CFD1B4884425B
:1016A00001D1039800E00298A1890904002900EB08
:1016B000C00101EB0010296802DA4FEA410101E0A4
:1016C0004FEA8101B0FBF1F06422B0FBF2F14FEA86
:1016D00001114FEA11136FF018056B4300EB830003
:1016E000A3891D044FF0320306D503EBC000B0FB05
:1016F000F2F000F0070005E003EB0010B0FBF2F0A1
:1017000000F00F000843208105B030BD00380140D3
:101710008088C0F308007047C1F3080181807047DA
:101720004FF41651016000218180C18001810C229B
:10173000428181817047FEE70FB4054B10B503A9C4
:10174000044A029800F0DAF810BC5DF814FB0000BF
:10175000392100083C020020014800687047000061
:101760004002002002E008C8121F08C1002AFAD176
:1017700070477047002001E001C1121F002AFBD111
:1017800070470000014908607047000040020020D7
:101790002DE9FF5FDDE90220010DDDF838B00243DD
:1017A00010D10F9801244CA2012808D000210098E4
:1017B0000F9BC0E90021C0E90243BDE8FF9F6FEA2B
:1017C0000B01F4E7A1F2FF3144F6105041430D1430
:1017D0000F9801280ED0A5EB0B00401C4FF0000421
:1017E0003E4EDFF8FC90B0F1000AA04605DACAF1DF
:1017F000000717E0CBF10000F0E7074612E0F8071A
:1018000007D02246334640464946FEF78EFE8046C4
:1018100089462246334610461946FEF786FE0446A0
:101820000E467F10002FEAD1DDE90201BAF1000F68
:1018300042464B4602DAFEF778FE01E0FEF7E7FE8D
:1018400004460E460022274BFEF768FF03D84FF0F0
:10185000FF30014607E00022234B20463146FEF7C9
:10186000BDFDFEF743FF102409E0002C0ADB0A222D
:101870000023FEF7FEFC019B30321A55641E50EA2D
:101880000102F2D1641C019AC4F1110314440F9AAD
:10189000012A09D00122084301D15B450FDD4FF039
:1018A000000205F101050DE0084303D1A3EB0B0590
:1018B0006D1E09E000204FF0110B0F9088E701DA50
:1018C00000226D1E002A83D000980F99C0E90231D2
:1018D000C0E9004571E7000030000000000024402E
:1018E0000000F03F0000F0430000E03F30380A28DD
:1018F00001D2012070470020704700002DE9FF4F02
:1019000095B09B4689460646002512E2252878D1E7
:101910000024761CF94A2746012105943378203BA0
:1019200001FA03F0104202D00443761CF6E7307847
:101930002A2811D06FF02F033078A0F13002092A45
:1019400016D8059A44F0020402EB820203EB42022D
:101950001044761C0590EFE759F8042B0592002AF5
:1019600003DA504244F40054059044F00204761C1B
:1019700030782E2816D116F8010F44F004042A28D6
:101980000DD06FF02F023078A0F13003092B09D869
:1019900007EB870302EB4303C718761CF3E759F8FC
:1019A000047B761C30786C280FD006DC4C2817D0CE
:1019B00068280DD06A2814D104E0742810D07A2841
:1019C0000FD10DE044F400140AE044F4801401E067
:1019D00044F440147278824202D1761C04F58014DB
:1019E000761C307866280BD013DC582877D009DCB9
:1019F000002875D04528F6D04628F4D047281AD1BB
:101A00009FE118E0632835D0642879D0652812D189
:101A100097E1702873D008DC6728F1D069286FD06F
:101A20006E280DD06F2806D1B5E073282CD075280C
:101A300075D0782874D05A46179990476D1C76E176
:101A4000C4F30250022809D003280DD0D9F80010A1
:101A500004280DD00D6009F1040968E1D9F80010DF
:101A6000EA17C1E90052F6E7D9F800100D80F2E755
:101A70000D70F0E719F8041B8DF8001000208DF8A8
:101A80000100EA46012003E059F804AB4FF0FF30B3
:101A900061074FF0000102D40DE008F10101884612
:101AA000B9420FDA8045F8DB1AF808100029F4D1A2
:101AB00008E008F1010188468142FADB1AF80810B3
:101AC0000029F6D105985B46A0EB08072146384669
:101AD000179A00F09EFA284400EB080507E04DE055
:101AE0002BE10DE01AF8010B5A4617999047B8F10F
:101AF0000108F7D25B4621463846179A14E142E0C6
:101B00000A220092C4F302524FF0000A022A08D0BF
:101B100059F804CB032A4FEAEC710AD00DE029E012
:101B20002AE009F1070121F00702F2E802C191461B
:101B300009E00FFA8CFC4FEAEC71042A03D14FFA4A
:101B40008CFC4FEAEC71002907DA0A460021DCF12F
:101B5000000C61EB02012D2202E0220504D52B22AC
:101B60008DF80420012203E0E20701D02022F7E7EC
:101B7000904653E00A2102E010220DE010214FF0C0
:101B8000000A00910BE010224FF0000A44F0040418
:101B90000827009203E008224FF0000A0092C4F3E5
:101BA0000252022A05D059F804CB0021032A08D09A
:101BB00009E009F1070121F00702F2E802C19146AC
:101BC00005E01FFA8CFC042A01D10CF0FF0C4FF049
:101BD0000008220722D5702827D0009B83F010032D
:101BE00053EA0A0309D15CEA010206D030228DF8DB
:101BF00004208DF8050002229046009B83F0080324
:101C000053EA0A030AD15CEA010201D1620705D551
:101C100030228DF804204FF001087F1E582809D08B
:101C200037A003900EA8029013E040228DF8042004
:101C30000122E1E737A0F4E753466046009AFEF739
:101C400018FB84460398825C0298A0F10100029080
:101C500002705CEA0100EFD1029806A9A1EB000036
:101C600000F1200A600702D524F4803400E0012747
:101C7000574502DDA7EB0A0000E0002000EB0A0157
:101C8000009005984144A0EB01000590E00306D4C4
:101C90005B462146179A059800F0BBF905440027DA
:101CA00006E001A85A46C05D179990476D1C7F1C3D
:101CB0004745F6DBE0030CD55B462146179A0598AD
:101CC00000F0A7F9054404E030205A4617999047E0
:101CD0006D1C0099481E00900029F5DC08E0029870
:101CE00002995A460078491C0291179990476D1C39
:101CF000BAF10001AAF1010AF1DC6BE10928010047
:101D00003031323334353637383961626364656671
:101D10000000000030313233343536373839414233
:101D2000434445460000000000F060F9054406F118
:101D30000106307800287FF4E9AD19B02846BDE8E7
:101D4000F08F620700D4062709F1070222F0070C82
:101D5000FCE80223E14603F000485FEA080C02D0E9
:101D60000FF27C2C0DE05FEA045C02D50FF2742CBC
:101D700007E05FEAC47C02D00FF26C2C01E0AFF206
:101D8000700C4FF0FF3823F00043CDF850C06528A9
:101D90000CD006DC452809D046281DD047283ED166
:101DA0003EE0662818D0672839D139E00021112F8C
:101DB00001DB112000E0781CCDE9000106A90EA886
:101DC000FFF7E6FCDDE90F010E9A03910021009276
:101DD00007F1010A04914EE04FF000400097CDE971
:101DE000011006A90EA8FFF7D3FCDDE90F0203924C
:101DF0000E9B11990022DDF80CA00093049219B9F2
:101E000007F1010100EB010AB7EB0A0004D4C0F1AD
:101E1000FF3007F1010A0490AAEB0700019046E0A9
:101E2000012F00DA01270021112F01DD112000E030
:101E30003846CDE9000106A90EA8FFF7A9FCDDE9A7
:101E40000F010E9A0391002104910092BA462107D6
:101E50000CD40399514500DA8A46BAF1010F05DD29
:101E6000009AAAF10101515C302908D0B84202DA87
:101E700010F1040F06DA0121CDE9011017E0AAF1F3
:101E80000101E9E7002805DC049901440491AAEB6B
:101E9000000102E0411C514500DD8A460499A0EB97
:101EA000010000F1010001904FF000400290200776
:101EB00004D40198504501DBCDF8048000208DF852
:101EC0004F0002980DF14F07B0F1004F25D02B20A5
:101ED0000E9002984FF0020800280CDA404202905F
:101EE0002D200E9007E00A210298FEF7ACF9303160
:101EF000029007F8011DB8F10001A8F10108F2DC19
:101F000002980028EFD1791E0E980870307800F002
:101F1000200040F0450007F8020D12A8A0EB0700D2
:101F200000F107081498007800B1012000EB0A01C5
:101F3000019801EBE07105984144A0EB0100A0F18C
:101F400001000590E00306D45B462146179A0598E8
:101F500000F05FF805441498007820B15A461799AC
:101F6000904705F10105E00323D55B462146179A0A
:101F7000059800F04EF805441BE00498002807DBA4
:101F8000DDE90301884203DD0098405C179901E018
:101F9000179930205A46904704986D1C401C0490B5
:101FA0000198401E019004D12E205A46179990475F
:101FB0006D1CBAF10001AAF1010ADEDC05E017F898
:101FC000010B5A46179990476D1CB8F10001A8F112
:101FD0000108F4DC5B462146179A0598A4E6000048
:101FE0002D0000002B000000200000002DE9F04132
:101FF000044600251E461746880405D406E03946E7
:102000002020B04705F10105641EF8D52846BDE83B
:10201000F0812DE9F041044600251E469046C80394
:1020200001D5302700E02027880405D506E0414689
:102030003846B04705F10105641EF8D52846BDE8CD
:10204000F08130B583B004460020CDE90000FFF7F1
:1020500083FB0546002221466846FEF756F92846CE
:10206000FFF790FBDDE9000103B030BD70B5064C11
:102070000D4606492288401CFEF7A4F82088401C23
:102080002880002070BD0000380200204C4700204E
:10209000002070470988FD2901D903207047407846
:1020A0007047000070B509880025FD290BD84278DB
:1020B0004AB10B490988891E8A4204D1094B1C6820
:1020C0000CB1002106E0032070BD4618B6786654B6
:1020D000491CC9B29142F8D300201860284670BD4F
:1020E0008C0100207001002070B509880024FD29B2
:1020F0000CD8427852B10E490988891E8A4205D10E
:102100000C4D6B6813B1801C002109E0032070BDE9
:1021100000EB4106368876BA23F81160491CC9B233
:10212000B1EB520FF4D300206860204670BD000070
:102130008C0100207001002070B5094C054640213B
:102140006068FFF739FAE9B26068FFF7E5FA402105
:102150006068FFF744FA0028F9D0284670BD0000F7
:10216000680100201FB500F08DF8FEF729FF00245C
:102170000325CDE900544FF480760294234632467D
:1021800008A10C48039400F0EFFACDE90054029442
:102190000023324608A10A48039400F0E5FA00F053
:1021A00067FAFEE74D424765744461746154617398
:1021B0006B000000A9240008636D645461736B0018
:1021C0008124000870B50B4C054620684560E06826
:1021D0002168854201F1040104D2606BBDE87040C2
:1021E00000F0B6B9206B00F0B3F9A06A854200D2C6
:1021F000A56270BD1401002070B5124E124C1AE099
:1022000000F058FA3068D0B100F0B4FB00F0CAF921
:10221000F068C568281D00F021F9A068401EA06084
:102220006068401E606000F0CBF9286B00F0D2F9C6
:10223000284600F0CFF960680028E1D170BD00F0B9
:1022400099FBF8E7E402002014010020044C00BFD1
:10225000FFF7D2FF20680128FAD900F0E3F9F7E789
:10226000440200200648016B096829B1016BC96866
:10227000C9684968816270474FF0FF31FAE7000092
:1022800014010020F8B5FEF775FF4FF480342046A6
:10229000FFF704F83120FEF7D7FF0028FAD02949CC
:1022A000022008600020FEF7EFFF0020FFF71AF879
:1022B0004FF48060FFF70CF84FF4E0112046FFF771
:1022C00021F80120FFF718F83920FEF7BDFF00289C
:1022D000FAD00220FFF720F8FEF7CEFF0828FBD146
:1022E00001217D20FEF73AFF01218803FEF72AFF36
:1022F00000214FF00060FEF71BFF4FF44070FEF727
:102300000DFF0420FFF766F800240F4E4FF416551A
:1023100023462246294630460094FEF7EBFD002373
:102320001A46294609480094FEF7E4FD3046FEF7B8
:1023300087FD41F61F410A20FFF79AF8BDE8F840F3
:10234000FEF7F6BC00200240003801400048004083
:10235000FDF718FFFEE7000010B5012000F01CF9A2
:1023600001218C072046FFF7C0F830B1054800680E
:10237000804701212046FFF7ABF8BDE81040002060
:1023800000F00AB9B40100202DE9F041044600250F
:1023900000F090F9274A02F10801506801F10803A2
:1023A00068B92548002720F00700C1E9000744F27A
:1023B000F836C3E90076C0E900360120506044F2E7
:1023C000F73094B30834660704D004F00706C6F16A
:1023D00008063444661E864227D21648096808302B
:1023E00001E0084631464E68A64202D20E68002E31
:1023F000F7D1994219D005680B6803604868083521
:10240000001B10280DD90B1958600A484C60083081
:102410005E6800E0204604686768B742FAD31C6033
:10242000036048681168081A106000F0A3FA284693
:10243000BDE8F0814C0100201403002010B5031FFB
:102440004FF080741C601B1F1960191F024B0B603A
:10245000143940380A6010BD51230008D0E9013218
:1024600001699A60D0E901235A604A68824201D129
:1024700082684A60002202610868401E0860704756
:1024800008B507A0074C00684FF47A650090042255
:1024900069462046FEF77AFD284600F0CFF8F6E7B9
:1024A00041574141004800401CB51E4D1E4C4FF4A1
:1024B0007A68404600F0C2F828780128F9D12078DF
:1024C00001281DD04128F4D1A0798DF80000E079D1
:1024D0008DF80100207A8DF80200607A8DF80300F3
:1024E00000208DF804006846FFF7ABFDFDF78FFE76
:1024F000FDF77AFE02460B460CA0FFF71DF9D8E760
:10250000B4F80500B4F8091040BA4EBA0A27B0FB77
:10251000F7F107A0FFF710F9B6FBF7F104A0FFF7FA
:102520000BF9C6E7690100200C470020256C660006
:1025300025640A0000F108014FF0FF32C0E90112E2
:10254000C160016100210160704700210161704795
:1025500030B50B685A1C02D000F1080202E0026993
:1025600004E02246546825689D42FAD953684B60BE
:1025700099608A60516008610168491C016030BD42
:1025800042684A6093688B60936859609160086103
:102590000168491C016070470149087070470000DC
:1025A0007801002010B5FDF7EDFD04480168491CD5
:1025B000BFF34F8FBFF36F8F016010BD6401002028
:1025C00003490868401E086001D1FDF7E2BD70476D
:1025D0006401002010B5002817D0A0F1080400F015
:1025E00069F80A48616800E01046026853688B4247
:1025F000FAD3226004600548616808380268114413
:102600000160BDE8104000F0B5B910BD54010020D4
:102610004FF0E0200249416107210161704700004D
:102620003F19010004494FF080500860BFF34F8FFD
:10263000BFF36F8F7047000004ED00E010B502009B
:102640000FD000F037F80948C16800688C18001DE9
:10265000FFF704FF2046FFF7B5FD00F08BF90028D7
:1026600003D1BDE81040FFF7DDBF10BD140100200D
:102670001FB500240094019402942346802209A1EE
:102680000A48039400F070F8012809D1FDF77AFD9B
:10269000074801214161C460BDE81F4000F03AB81D
:1026A0001FBD000049444C45000000004D220008B9
:1026B000140100200248C16A491CC1627047000031
:1026C000140100201148C16A11B10121C161704794
:1026D0000021C1610E4901E0521E0261026902EB54
:1026E000820251F82220002A0269F5D002EB820210
:1026F00001EB820101F108034A6852684A609A427C
:1027000001D152684A60D16801607047140100200D
:1027100044020020094810B5016841F47F010160BE
:10272000016841F07F410160FFF772FF044900201A
:102730000860FDF7F7FC002010BD000020ED00E070
:102740006401002010B5FDF71DFD00F0B9F818B1C7
:1027500004494FF080500860BDE810400020FDF7AC
:1027600018BD000004ED00E02DE9F05F8346DDE9CF
:102770000A689A461546894644200C9FFFF704FED6
:1027800004004BD0F7B338462063E0B36FF0030189
:1027900001EB8501084420F0070749463546002033
:1027A00022180B5C82F834300A5C12B1401C1028ED
:1027B000F6D3002184F84310052D00D30425201DF5
:1027C000E562FFF7C2FE04F11800FFF7BEFEC5F197
:1027D00005012461A1615246594638466462FFF7FB
:1027E0002DFE2060B8F1000F01D0C8F80040FFF7BF
:1027F000D9FE314DA868401CA8602868DFF8BC806D
:1028000078B101E003E006E0686990B337E0A80022
:10281000FFF7BAFDB8E72046FFF7DCFE4FF0FF34C4
:1028200047E02C60A868012829D1002707EB870121
:1028300008EB8100FFF77EFE7F1C052FF6D31F48B3
:102840006430FFF777FE1D487830FFF773FE1B48B2
:102850008C30FFF76FFE1948A030FFF76BFE17486A
:10286000B430FFF767FE154864302863143068639E
:1028700005E0FFE72868C06AB04200D82C60686AAB
:10288000401C6862E06A2969884200D9286100EB2F
:10289000800108EB8100211DFFF772FE0124FFF784
:1028A0008FFE686928B12868C06AB04201D2FFF77C
:1028B000B9FE2046BDE8F09F14010020440200202C
:1028C0002DE9F041294C0026E06A40B1A069401C86
:1028D000A061E06900B101263046BDE8F081E06802
:1028E000401CE060E76847B9206B616B216360635F
:1028F000206A401C2062FFF7B5FCA06ADFF87080F8
:10290000874209D3206B006880B1206BC068C5681E
:10291000686887420DD2A0622068C06A00EB80011F
:1029200058F821000128D4D90126D2E74FF0FF3012
:10293000F1E7281DFFF792FDA86A18B105F118000C
:10294000FFF78CFDE86A2169884200D9206100EB1D
:10295000800108EB8100291DFFF712FEE86A21685B
:10296000C96A8842CED30126CCE7000014010020BA
:10297000440200202DE9F0470026FFF713FE224C09
:10298000E06A401EE062E06A90BBA1681F4F012030
:1029900071B3A7F18C0980463868E0B1F868C56862
:1029A00005F11800FFF75AFD281DFFF757FDE86AEB
:1029B0002169884200D9206100EB800109EB810088
:1029C000291DFFF7DDFDE86A2168C96A8842E3D363
:1029D000C4F81C80E0E7A06958B14546A06940B141
:1029E000FFF76EFF00B1E561A069401EA061F5E749
:1029F00005E0E069012802D10126FFF713FEFFF789
:102A0000DFFD3046BDE8F08714010020D002002031
:102A1000DDDDDDDDDCBBBBDDDDDDDDDDDDDDDDDD2B
:102A2000988888888888888877777777778888886B
:102A30008555555666666666666666666668888803
:102A40008333333222222222222222222228888DFC
:102A5000702A00080001002044010000500C00080A
:102A6000C82A0008440200202C49000074170008FE
:102A700045020406082D0102030404052806070880
:102A8000091AFF01C10316F8431AAA0121220304FF
:102A9000153801400232023211136D203308041A36
:102AA000E908195E390832101A91085A06085A17AF
:102AB0001832011AA5085A05185A0F08297B291837
:082AC00032801A950801340070
:04000005080000ED02
:00000001FF
