:020000040800F2
:1000000008070020A1010008230700081F070008B7
:1000100021070008AF020008570C0008000000008C
:1000200000000000000000000000000001010008C6
:10003000B10200080000000041010008590A000850
:10004000BB010008BB010008BB010008BB010008A0
:10005000BB010008BB01000879060008BB010008CD
:10006000BB010008BB010008BB010008BB01000880
:10007000BB010008BB010008BB010008BB01000870
:10008000BB010008BB010008BB010008BB01000860
:10009000BB010008BB010008BB010008BB01000850
:1000A000BB010008BB010008BB010008BB01000840
:1000B000AD0A0008BB010008BB010008BB01000835
:1000C000BB010008BB010008BB010008BB01000820
:1000D000BB010008CF0A0008D30A0008D70A0008AD
:1000E000BB010008BB010008BB010008DFF80CD011
:1000F00000F0ACF800480047E911000808070020AC
:100100001F4B19680868B0E8F00F80F30988BFF347
:100110006F8F4FF0000080F311884EF00D0E704786
:100120000000000005480068006880F3088862B697
:10013000BFF34F8FBFF36F8F00DF00BF08ED00E00C
:10014000EFF30980BFF36F8F0D4B1A6820E9F00FB2
:10015000106008B54FF0BF0080F3118801F01EF960
:100160004FF0000080F31188BDE808401968086866
:10017000B0E8F00F80F30988BFF36F8F704700BFBE
:1001800014010020EFF311804FF0BF0181F31188BB
:10019000704780F311887047EFF3058070470000C7
:1001A0000648804706480047FEE7FEE7FEE7FEE711
:1001B000FEE7FEE7FEE7FEE7FEE7FEE75D0A000872
:1001C000ED00000840EA01039B0703D009E008C9DD
:1001D000121F08C0042AFAD203E011F8013B00F80C
:1001E000013B521EF9D270472DE9F05F0546002011
:1001F00092469B4688460646814640241BE0284698
:1002000041464746224600F042F853465A46C01A35
:10021000914110D311461846224600F029F82D1AB4
:1002200067EB01084F4622460120002100F020F82C
:1002300017EB00094E41201EA4F10104DFDC484603
:1002400031462A464346BDE8F09F0000064C074D64
:1002500006E0E06840F0010394E807009847103496
:10026000AC42F6D3FFF746FFC4140008E4140008BC
:10027000202A04DB203A00FA02F100207047914066
:10028000C2F1200320FA03F3194390407047202A5B
:1002900004DB203A21FA02F00021704721FA02F330
:1002A000D040C2F120029140084319467047FEE752
:1002B00070470000F8B504464FF4407000F064FA4F
:1002C000194E0020012140F22555B44207D12522C4
:1002D0008DF800208DF802008DF8011009E0134E12
:1002E000B44215D126228DF800208DF8020002209C
:1002F00017E08DF80310684600F014FA29463046DE
:1003000000F0EEFB01222946304600F01FFCF8BD4C
:10031000074EB442FBD127228DF800208DF8020051
:1003200003208DF80100E4E700380140004400405C
:100330000048004010B572B6054A06490648FFF766
:1003400041FF05494FF0005000F028FA62B610BD99
:10035000EC000000000000080000002070B5154C03
:1003600040F225552946204600F0D1FB18B1294618
:10037000204600F0B5FB40F226652946204600F0F5
:10038000C6FB18B12946204600F0AAFB40F22775AB
:100390002946204600F0BBFB00280AD0294620460B
:1003A00000F09EFB29462046BDE87040002200F088
:1003B000CDBB70BD0038014070B5194C40F22555D9
:1003C0002946204600F0A3FB50B12946204600F004
:1003D00087FB204600F02CFC014612A000F03CFCFC
:1003E00040F226652946204600F091FB18B12946C7
:1003F000204600F075FB40F227752946204600F0A4
:1004000086FB00280AD02946204600F069FB2946D1
:100410002046BDE87040002200F098BB70BD00008F
:100420000044004025630A0070B51AA000F014FCD7
:100430001D4C40F225552946204600F068FB50B17E
:100440002946204600F04CFB204600F0F1FB014617
:1004500016A000F001FC40F226652946204600F077
:1004600056FB18B12946204600F03AFB40F22775AA
:100470002946204600F04BFB00280AD0294620469A
:1004800000F02EFB29462046BDE87040002200F017
:100490005DBB70BD67657420696E746F20696E7492
:1004A0006572727570740A00004800402530327819
:1004B0000A00000001490860704700004C0100205C
:1004C000F8B5044601210D2000F07EF9214A0320F1
:1004D0001821214D1715042694420DD15215ADF85F
:1004E00000208DF802008DF803106946284600F0C0
:1004F000C5F8ADF800700FE0184A944213D1ADF87A
:1005000000608DF802008DF803106946284600F05F
:10051000B5F80820ADF800008DF80360694628465C
:1005200000F0ACF8F8BD0E4A9442FBD1ADF8007073
:100530008DF802000B4C8DF803106946204600F040
:100540009DF8E014ADF800008DF803606946204680
:10055000E6E7000000380140000801400044004088
:1005600000480040000C01402DE9FF4104462148AD
:10057000DDF828801D4616460F46844204D101212D
:10058000880300F021F90CE01B48844202D10121CC
:10059000480404E01948844203D10121880400F092
:1005A00007F9684600F04CFB0020ADF80C00ADF8F0
:1005B00008800C20ADF80460ADF80A000097ADF893
:1005C00006500021204600F091FA2046FFF778FF00
:1005D0002046FFF76FFE6946204600F0CFFA012162
:1005E000204600F083FA4021204600F076FABDE86C
:1005F000FF810000003801400044004000480040F6
:100600002DE9F04115460E46074600240AE0315D0B
:10061000384600F011FB4021384600F071FA0028FE
:10062000F9D0641CAC42F2D3BDE8F08138B50121A9
:10063000082000F0C9F80120ADF8000010208DF866
:10064000030003200B4C8DF802006946204600F0A1
:1006500015F80220ADF800006946204600F00EF8BB
:100660000121204600F059F80221204600F055F8FB
:1006700038BD0000000C014070470000F0B5CA789A
:10068000002502F00F03D20601D58A7813430C78B7
:100690004FF00F0E0122ECB1D0F800400F8802FAA3
:1006A00005F63740B74211D14FEA850C0EFA0CF728
:1006B00024EA070703FA0CF43C43CF78282F02D032
:1006C000482F02D002E0466100E006616D1C082D53
:1006D000E4D304600C88FF2C1ED944685FF0000648
:1006E00006F1080702FA07F50F882F40AF420FD135
:1006F0004FEA860C0EFA0CF7BC4303FA0CF73C43A6
:10070000CF78282F00D14561CF78482F00D10561DF
:10071000761C082EE4D34460F0BD01617047FEE70B
:10072000FEE77047F0B50F21C478027801234FF03F
:10073000E026DCB1124C2468457804F4E064C4F58A
:10074000E064240AC4F10407E1408478BD400C4011
:100750002C4321010B4C1155007800F01F018B40F8
:10076000400906EB8000C0F80031F0BD02F01F0028
:100770008340500906EB8000C0F88031F0BD0000D6
:100780000CED00E000E400E0024908430249086083
:10079000704700000000FA050CED00E0024A11402D
:1007A000014302480160704780FFFF1F08ED00E031
:1007B000044A0029D16901D0014300E08143D1619D
:1007C0007047000000100240044A0029916901D0DE
:1007D000014300E081439161704700000010024036
:1007E0000C48016841F00101016041680A4A11406A
:1007F00041600168094A11400160016821F48021CB
:100800000160416821F4FE0141604FF41F018160E5
:1008100070470000001002400000FFF8FFFFF6FEE6
:1008200030B520494A6812F00C031F4A03D0042B4C
:1008300001D0082B22D002604A680F231B4C03EA28
:100840001212A35C0268DA4042604B68072505EA91
:100850001323E35C22FA03F383604B6805EAD32396
:10086000E35C22FA03F2C2604968032303EA913190
:10087000231F595CB2FBF1F1016130BD4A684B683E
:1008800002F470124FF0020413F4803F04EB924222
:1008900002D04B689B0301D5054B00E0024B5A4345
:1008A000C9E700000010024000127A000401002095
:1008B00000093D000246002053090949012B0BD0D5
:1008C000022B0BD0D1F8241002F01F020123934019
:1008D0000B4200D0012070470968F5E7096AF3E789
:1008E000001002400248406800F00C007047000011
:1008F00000100240034A516821F0F00101435160A9
:1009000070470000001002400B490A6822F4803250
:100910000A600A6822F480220A60B0F5803F07D09E
:10092000B0F5802F03D1086840F4A020086070471C
:10093000086840F48030F9E700100240034A51682B
:1009400021F4E06101435160704700000010024053
:1009500003494A6822F4605242EAC0004860704786
:100960000010024001490866704700000000424242
:10097000034A5368084323F47C13184350607047BC
:1009800000100240034A516821F003010143516005
:1009900070470000001002400CB50021264801916C
:1009A0000091026842F4803202604FF4A063026852
:1009B00002F400320092019A521C0192009A12B97C
:1009C000019A9A42F3D10268920333D50121009132
:1009D0001A490A6842F010020A600A6822F003020B
:1009E0000A600A6842F002020A6041684160416898
:1009F0004160416841F480614160416821F47C11AB
:100A00004160416841F4E8114160016841F0807142
:100A1000016001688901FCD5416821F00301416052
:100A2000416841F0020141604168C1F3810102293E
:100A3000FAD10CBD00910CBD001002400020024014
:100A40004FF0E0210428086903D020F00400086179
:100A5000704740F00400FAE700F0C8BC0F4810B53A
:100A6000016841F00101016041680D4A1140416097
:100A700001680C4A11400160016821F48021016085
:100A8000416821F4FE0141604FF41F018160FFF7CE
:100A900083FF05494FF00060086010BD0010024060
:100AA0000000FFF8FFFFF6FE08ED00E000F03ABCA2
:100AB000C9430182704702460020138A92890B4283
:100AC00002EA010202D0002A00D001207047FFF79D
:100AD00045BCFFF771BCFFF7A7BCC9430180704755
:100AE0000A0A01219140C943018070470029818988
:100AF00002D041F4005101E021F40051818170479E
:100B00000246002012880A4200D00120704730B50A
:100B100001F01F0201240025C1F3421304FA02F27E
:100B2000012B0FD0022B0FD0838A4FEA11210088AE
:100B3000134204FA01F400EA040001D000B10125D7
:100B4000284630BD8389F0E7038AEEE710B5C1F38C
:100B5000421301F01F040121A140012B07D0022BF9
:100B600007D01430002A026805D00A4304E00C3094
:100B7000F8E71030F6E78A43026010BD30B504464E
:100B8000008A85B00D464CF6FF710840E9880143A4
:100B90002182A1894EF6F3100140A8882A891043CA
:100BA0006A890A431043A081A08A4FF6FF4108409A
:100BB000A9890143A1826846FFF732FE1B4884429F
:100BC00001D1039800E00298A1890904002900EBF3
:100BD000C00101EB0010296802DA4FEA410101E08F
:100BE0004FEA8101B0FBF1F06422B0FBF2F14FEA71
:100BF00001114FEA11136FF018056B4300EB8300EE
:100C0000A3891D044FF0320306D503EBC000B0FBEF
:100C1000F2F000F0070005E003EB0010B0FBF2F08B
:100C200000F00F000843208105B030BD00380140BE
:100C30008088C0F308007047C1F3080181807047C5
:100C40004FF41651016000218180C18001810C2286
:100C5000428181817047FEE70FB4054B10B503A9AF
:100C6000044A029800F018F810BC5DF814FB00006C
:100C7000C51100081C02002002E008C8121F08C1AC
:100C8000002AFAD170477047002001E001C1121F0D
:100C9000002AFBD1704700002DE9FF4F8DB00F46B1
:100CA00005460026DEE1252874D100246D1CF1499B
:100CB000A246A14601222B78203B02FA03F008420B
:100CC00002D004436D1CF6E728782A2810D06FF074
:100CD0002F022878A0F13001092915D80AEB8A01E2
:100CE00002EB410144F0020400EB010A6D1CF0E745
:100CF00057F804ABBAF1000F03DA44F40054CAF118
:100D0000000A44F002046D1C28782E2817D115F82B
:100D1000010F44F004042A280ED06FF02F02287827
:100D2000A0F1300109290AD809EB890102EB410140
:100D300000EB01096D1CF2E757F8049B6D1C287845
:100D40006C280FD006DC4C2817D068280DD06A28F4
:100D500014D104E0742810D07A280FD10DE044F4A7
:100D600000140AE044F4801401E044F4401469786B
:100D7000814202D16D1C04F580146D1C2A786E2A04
:100D800020D00DDC632A33D005DC002A6FD0582A2E
:100D900012D1A2E011E0642A6AD0692A0CD167E07E
:100DA000732A2FD004DC6F2A6FD0702A04D199E007
:100DB000752A6BD0782A6AD01046DDE90F12904769
:100DC000761C4EE1C4F30250022806D003280AD054
:100DD000042801CF0AD0066043E101CF4FEAE67153
:100DE000C0E900613DE101CF06803AE1067038E1DB
:100DF00017F8040B8DF8000000208DF80100EB4679
:100E0000012003E057F804BB4FF0FF3061074FF0BB
:100E1000000102D40DE008F10101884649450FDACE
:100E20008045F8DB1BF808100029F4D108E008F130
:100E3000010188468142FADB1BF808100029F6D12F
:100E4000DDE90F23AAEB08008146214600F03BF9BB
:100E5000304400EB080604E0DDE90F121BF8010B3B
:100E60009047B8F10108F7D221464846F4E0FDE08A
:100E70000A21C4F302534FF0000B0891022B07D054
:100E800001CFC117032B09D00AE034E023E024E0AE
:100E9000FF1D27F00707F7E8020105E000B2C117C0
:100EA000042B01D140B2C117002907DA4FF0000C22
:100EB000D0EB0C006CEB01012D2302E0230504D5DF
:100EC0002B238DF82430012303E0E30701D02023F6
:100ED000F7E7984650E00A210EE010204FF0000B93
:100EE00008900CE010214FF0000B44F004044FF088
:100EF0000809089103E008214FF0000B0891C4F3A2
:100F00000253022B04D001CF0021032B06D006E0B0
:100F1000FF1D27F00707F7E8020103E080B2042B6A
:100F200000D1C0B24FF00008230725D5702A2AD07F
:100F3000DDF820C08CF0100C5CEA0B0C09D150EAF3
:100F4000010306D030238DF824308DF825200223AC
:100F50009846DDF820C08CF0080C5CEA0B0C0BD135
:100F600050EA010301D1630706D530238DF8243000
:100F70004FF00108A9F10109582A09D03EA20B92AD
:100F800008AA0A9211E040238DF824300123DFE7FC
:100F90003EA2F4E75B46089AFFF726F90B9B9B5CA1
:100FA0000A9AA2F101020A92137050EA0102F1D1E9
:100FB0000A98ADEB000000F1200B600702D524F485
:100FC000803401E04FF00109D94502DDA9EB0B00A7
:100FD00000E0002000EB0B0141440890AAEB010A5D
:100FE000E00306D4DDE90F232146504600F06BF8FC
:100FF0000644002008E009A911F80900DDE90F12F4
:101000009047761C09F1010081464045F3DBE0037F
:101010000CD5DDE90F232146504600F054F8064474
:1010200004E0DDE90F1230209047761C0899481E35
:1010300008900029F5DC08E00A980A990078491C14
:101040000A91DDE90F129047761CBBF10001ABF16C
:10105000010BF1DC21465046DDE90F2300F020F8BA
:1010600006446D1C287800287FF41DAE11B0304670
:10107000BDE8F08F0928010030313233343536377E
:1010800038396162636465660000000030313233D4
:101090003435363738394142434445460000000074
:1010A0002DE9F041044600251E461746880405D464
:1010B00006E039462020B04705F10105641EF8D549
:1010C0002846BDE8F0812DE9F041044600251E4682
:1010D0009046C80301D5302700E02027880405D5B5
:1010E00006E041463846B04705F10105641EF8D5D3
:1010F0002846BDE8F081000070B5064C0D46064953
:101100002288401CFFF75EF82088401C28800020C1
:1011100070BD000018020020E80200200020704787
:101120000988FD2901D903207047407870470000E5
:1011300070B509880025FD290BD842784AB10B49C2
:101140000988891E8A4204D1094B1C680CB1002110
:1011500006E0032070BD4618B6786654491CC9B233
:101160009142F8D300201860284670BD6C01002021
:101170005001002070B509880024FD290CD8427860
:1011800052B10E490988891E8A4205D10C4D6B68FF
:1011900013B1801C002109E0032070BD00EB410663
:1011A000368876BA23F81160491CC9B2B1EB520FE8
:1011B000F4D300206860204670BD00006C01002060
:1011C0005001002070B5074D0446C1B22868FFF7F2
:1011D00033FD40212868FFF793FC0028F9D0204612
:1011E00070BD00004C0100201CB50BA1D1E900012D
:1011F000CDE9000100F034F8FFF718FA08A0FFF776
:101200002BFD082269460B48FFF7FAF969460AA048
:10121000FFF722FDFEE70000010400000004F1C911
:101220007561727420737461727420776F726B6968
:101230006E670A00004800402532780A000000006E
:101240000648016B096829B1016BC968C96849681A
:10125000816270474FF0FF31FAE70000140100206F
:10126000F8B5FFF7BDFA4FF480342046FFF74CFB8A
:101270003120FFF71FFB0028FAD027490220086021
:101280000020FFF737FB0020FFF762FB4FF4806080
:10129000FFF754FB4FF4E0112046FFF769FB0120F4
:1012A000FFF760FB3920FFF705FB0028FAD002208A
:1012B000FFF768FBFFF716FB0828FBD101217D2013
:1012C000FFF782FA01218803FFF772FA00214FF03D
:1012D0000060FFF763FA4FF44070FFF755FA0420FF
:1012E000FFF7AEFB00240D4E4FF416552346224661
:1012F000294630460094FFF737F900231A4629465D
:1013000007480094FFF730F93046FFF7D3F8BDE8FF
:10131000F840FFF70FB800000020024000380140FD
:101320000048004010B5012000F032F801218C0780
:101330002046FFF7C0FB30B1054800688047012117
:101340002046FFF7B5FBBDE81040002000F020B8B4
:1013500094010020D0E9013201699A60D0E90123AB
:101360005A604A68824201D182684A600022026162
:101370000868401E0860704742684A6093688B6046
:1013800093685960916008610168491C0160704769
:101390000149087070470000580100201148C16AD7
:1013A00011B10121C16170470021C1610E4901E005
:1013B000521E0261026902EB820251F82220002AC9
:1013C0000269F5D002EB820201EB820101F1080310
:1013D0004A6852684A609A4201D152684A60D168AC
:1013E00001607047140100202002002010B5FEF7B4
:1013F000C9FE00F00DF818B104494FF080500860A4
:10140000BDE810400020FEF7C4BE000004ED00E07F
:101410002DE9F041294C0026E06A40B1A069401C4A
:10142000A061E06900B101263046BDE8F081E068C6
:10143000401CE060E76847B9206B616B2163606323
:10144000206A401C2062FFF7FBFEA06ADFF8708074
:10145000874209D3206B006880B1206BC068C568E3
:10146000686887420DD2A0622068C06A00EB8001E4
:1014700058F821000128D4D90126D2E74FF0FF30D7
:10148000F1E7281DFFF766FFA86A18B105F11800FB
:10149000FFF760FFE86A2169884200D9206100EB0C
:1014A000800108EB8100291DFFF766FFE86A2168CB
:1014B000C96A8842CED30126CCE70000140100207F
:1014C00020020020E4140008000100202001000098
:1014D000780C00080416000820020020E804000030
:1014E000880C000802040608000000000102030442
:1014F00001020304060708090000000000000000C4
:1015000000000000000000000000000000000000DB
:1015100000000000000000000000000000000000CB
:10152000FFFFFFFF000000000000000000000000BF
:101530000038014000000000000000000000000032
:101540000000000000000000000200000000000099
:10155000000000000000000000000000000000008B
:10156000000000000000000000000000000000007B
:10157000000000000000000000000000110000005A
:10158000F9100008040000007511000803000000B5
:1015900075110008100000001D1100080600000071
:1015A0001D1100081700000075110008010000005F
:1015B00031110008050000001D1100080F00000097
:1015C0001D11000802000000311100088000000019
:1015D00021110008000000000000000000000000D1
:1015E00000000000000000000000000000000000FB
:1015F00000000000000000000000000000000000EB
:0416000000000000E6
:04000005080000ED02
:00000001FF
